:020000040000FA
:10000000700800206D0200008102000083020000E1
:10001000850200008502000085020000000000004B
:100020000000000000000000000000008502000049
:10003000850200000000000085020000850200002B
:100040008502000085020000850200008502000094
:100050008502000085020000850200008502000084
:100060008502000085020000850200008502000074
:100070008502000085020000850200008502000064
:100080008502000085020000850200008502000054
:100090008502000085020000850200008502000044
:1000A0008502000085020000850200008502000034
:1000B0008502000085020000850200008502000024
:1000C0008502000085020000850200008502000014
:1000D0008502000085020000850200008502000004
:1000E000850200008502000000000000850200007B
:1000F00085020000850200008502000085020000E4
:1001000085020000850200008502000085020000D3
:1001100000000000000000008502000085020000D1
:1001200085020000850200008502000085020000B3
:1001300085020000850200008502000085020000A3
:1001400000000000000000000000000000000000AF
:100150008502000085020000850200008502000083
:10016000000000000000000000000000000000008F
:10017000000000000000000000000000000000007F
:10018000000000000000000000000000000000006F
:10019000000000000000000000000000000000005F
:1001A000000000000000000000000000000000004F
:1001B0008502000085020000850200008502000023
:1001C0008502000085020000850200008502000013
:1001D0008502000085020000850200008502000003
:1001E000850200008502000085020000000000007A
:1001F000000000008502000085020000850200006A
:1002000085020000850200000000000000000000E0
:1002100085020000850200008502000085020000C2
:1002200085020000850200008502000085020000B2
:1002300085020000850200008502000085020000A2
:100240008502000085020000850200008502000092
:100250008502000085020000850200008502000082
:100260008502000085020000850200004EF68850DD
:10027000CEF20000016841F47001016000F004B8A2
:10028000FEE7FEE7FEE70000DFF80CD002F0E2F840
:1002900000480047DB1D000070080020EFF31080CD
:1002A00072B67047EFF310807047EFF3108062B6BC
:1002B000704730BF704780F311887047EFF31180AB
:1002C000704700000138FDD17047000030B502468C
:1002D000F84B1824F8480068F84D2840F84DA8421B
:1002E00001D1F84B00BF002108E053F831009042E3
:1002F00003D103EBC100406830BD491CA142F4D3D7
:100300000020F9E702F001031BB1D0F800340B43E1
:1003100002E0D0F800348B43C0F8003402F002034E
:100320001BB1D0F820340B4302E0D0F820348B43CB
:10033000C0F82034704730B5024601208840C1B271
:10034000D2F80034D2F8204403EA010008B10120B9
:1003500000E0002004EA01050DB1022500E00025BF
:10036000284330BD02F001031BB1D0F808340B4321
:1003700002E0D0F808348B43C0F8083402F00203DE
:100380001BB1D0F804340B4302E0D0F804348B43A3
:10039000C0F8043402F004031BB1D0F80C340B4352
:1003A00002E0D0F80C348B43C0F80C3402F48033F4
:1003B00023B1D0F8383543F0010303E0D0F83835E5
:1003C00023F00103C0F838357047F0B5024601202C
:1003D0008840C1B2D2F80834D2F80444D2F80C6490
:1003E000D2F8385503EA010008B1012000E00020EE
:1003F00004EA01070FB1022700E00027384306EAAC
:1004000001070FB1042700E00027384305F001077A
:10041000384310B14FF48030F0BD0020FCE7F0B558
:1004200002F001051DB1D0F800550D4302E0D0F8EF
:1004300000558D43C0F8005502F002051DB1D0F8FB
:1004400004550D4302E0D0F804558D43C0F804551F
:1004500002F004051DB1D0F808550D4302E0D0F8B4
:1004600008558D43C0F8085502F008051DB1D0F8B5
:1004700018550D4302E0D0F818558D43C0F81855B3
:1004800002F010051DB1D0F83C550D4302E0D0F844
:100490003C558D43C0F83C55002416E00125A5408D
:1004A0000D4085B1D0F8C45F67000326BE40B54358
:1004B000C0F8C45FD0F8C45F6700C2F34116BE4005
:1004C0003543C0F8C45F651CECB2082CE6DB03F0D2
:1004D00001051DB1D0F80C550D4302E0D0F80C55C4
:1004E0008D43C0F80C5503F002051DB1D0F810552E
:1004F0000D4302E0D0F810558D43C0F8105503F0BD
:1005000004051DB1D0F814550D4302E0D0F8145580
:100510008D43C0F8145503F008051DB1D0F81C55E3
:100520000D4302E0D0F81C558D43C0F81C5503F470
:1005300000751DB1D0F844550D4302E0D0F8445584
:100540008D43C0F8445503F440751DB1D0F84055B3
:100550000D4302E0D0F840558D43C0F840551BB91B
:10056000D0F828550D4302E0D0F828558D43C0F847
:100570002855F0BDF0B514461D4601268E40F1B257
:10058000D0F800650E400EB1012600E0002632468C
:10059000D0F804650E400EB1022600E0002632437A
:1005A000D0F808650E400EB1042600E00026324364
:1005B000D0F818650E400EB1082600E00026324340
:1005C000D0F83C650E400EB1102600E00026324304
:1005D000D0F8C46F4F00FE4006F0030642EA461210
:1005E0002260D0F80C650E400EB1012600E0002616
:1005F0003346D0F810650E400EB1022600E000260A
:100600003343D0F814650E400EB1042600E00026F6
:100610003343D0F81C650E400EB1082600E00026DA
:100620003343D0F840650E404EB1D0F844650E40DB
:1006300016B14FF4007601E04FF4807633432B601F
:10064000F0BDD0F810240A43C0F810247047D0F849
:1006500010248A43C0F810247047024611B1D2F822
:1006600018047047D2F81404FBE7C0F81C14704754
:1006700070B504460D462046FFF728FE064629467B
:10068000304600F031FA304600F08AFA70BD70B59D
:1006900004462046FFF71AFE0546284600F0BCFA3D
:1006A000284600F03BFA70BD0246002000EB8100B6
:1006B00010587047C825000000E00F400000FF7090
:1006C00000000A1088260000002303EB8103C250BB
:1006D000704730B504460D46002229462046FFF7F4
:1006E00011FE0023012229462046FFF798FE30BD67
:1006F00030B504460D46022229462046FFF702FE89
:100700000823042229462046FFF789FE30BD30B574
:1007100004460D46002229462046FFF7F3FD00233C
:10072000012229462046FFF77AFE30BD30B5044647
:100730000D46022229462046FFF7E4FD0823042245
:1007400029462046FFF76BFE30BD30B504460D4606
:10075000022229462046FFF7D5FD08230422294618
:100760002046FFF75CFE30BD30B504460D46022240
:1007700029462046FFF7C6FD0823042229462046C5
:10078000FFF74DFE30BD30B504460D460222294626
:100790002046FFF7B7FD0823012229462046FFF730
:1007A0003EFE30BD30B504460D46002229462046A7
:1007B000FFF7A8FD0823012229462046FFF72FFE58
:1007C00030BD30B504460D46082301222946204697
:1007D000FFF725FE012229462046FFF793FD30BD95
:1007E00030B504460D460923012229462046FFF76D
:1007F00016FE012229462046FFF784FD30BD30B5A4
:1008000004460D46022229462046FFF77BFD0923B8
:10081000012229462046FFF702FE30BD30B50446CE
:100820000D46022229462046FFF76CFD08230122CF
:1008300029462046FFF7F3FD30BD30B504460D468E
:10084000022229462046FFF75DFD0823042229469F
:100850002046FFF7E4FD30BD30B504460D460222C8
:1008600029462046FFF74EFD08230422294620464C
:10087000FFF7D5FD30BD30B504460D4600222946B0
:100880002046FFF73FFD0023012229462046FFF7BF
:10089000C6FD30BD30B504460D460222294620462D
:1008A000FFF730FD0823012229462046FFF7B7FD58
:1008B00030BD30B504460D46022229462046FFF7DA
:1008C00021FD0823012229462046FFF7A8FD30BD5F
:1008D00030B504460D46022229462046FFF712FD98
:1008E0000A23012229462046FFF799FD30BD30B585
:1008F00004460D46022229462046FFF703FD082341
:10090000012229462046FFF78AFD30BD30B5044656
:100910000D46022229462046FFF7F4FC0823012257
:1009200029462046FFF77BFD30BD30B504460D4615
:10093000022229462046FFF7E5FC0823012229462A
:100940002046FFF76CFD30BD30B504460D46002251
:1009500029462046FFF7D6FC0023012229462046DF
:10096000FFF75DFD30BD30B504460D460222294635
:100970002046FFF7C7FC0823012229462046FFF73F
:100980004EFD30BD30B504460D46002229462046B6
:10099000FFF7B8FC4FF40273012229462046FFF707
:1009A0003EFD30BD30B504460D46002229462046A6
:1009B000FFF7A8FC4FF48473012229462046FFF775
:1009C0002EFD30BD30B504460D4602222946204694
:1009D000FFF798FC0823012229462046FFF71FFD58
:1009E00030BD30B504460D46022229462046FFF7A9
:1009F00089FC0A23012229462046FFF710FD30BD5D
:100A000030B504460D46022229462046FFF77AFCFF
:100A10000823042229462046FFF701FD30BD30B5EA
:100A200004460D46022229462046FFF76BFC0823A8
:100A3000012229462046FFF7F2FC30BD014601F5B0
:100A4000A960704710B50146C1F307401B4BDB6E30
:100A500001248440234033B1012303EB4003184CAD
:100A600054F8230003E04300154C54F82300C1F36D
:100A70000722D0F82C350F249440A34301F00F0433
:100A800094402343C0F82C3510BDD0F834250A43D8
:100A9000C0F834257047D0F834258A43C0F834258F
:100AA0007047D0F830250A43C0F830257047D0F899
:100AB00030258A43C0F830257047000000E00F4021
:100AC0004827000000BFFEE710B5FFF7EEFB08B1B6
:100AD000012010BD0020FCE710B5FFF7DFFB08B1D7
:100AE000012010BD0020FCE730B50246B64C24685A
:100AF000B64DAC420ED0B44C2368002005E053F84C
:100B00002040B24D45F82040401C9B28F7D3AF4C05
:100B1000AD4D2C60AD4C44F8221030BDAC49AB4A11
:100B200042F820107047AB4951F82010AA4A1143EF
:100B3000A54A121D11607047A34A121D126802F4E3
:100B4000E061002006E0A34A52F820208A4200D14A
:100B500002E0401C0828F6D300BF704710B50A46D3
:100B600083089E4C54F8233019688307DC0EFF235A
:100B7000A34099438307DB0E02FA03F3194383086A
:100B8000964C54F82330196010BD01468808934AEA
:100B900052F8200000688A07D20ED040C0B27047D9
:100BA000042808D188491C31096841F48031864AFB
:100BB0001C3211602FE0052808D183491C310968D7
:100BC00041F40031804A1C32116024E0062808D12B
:100BD0007D491C31096841F480217B4A1C32116037
:100BE00019E00F2808D14FF0E021096941F0020116
:100BF0004FF0E02211610EE010280CD3A0F110019B
:100C000001F01F0201219140A0F110025209744B22
:100C100053F8222011607047042808D16A491C311A
:100C2000096821F48031684A1C3211602FE00528E0
:100C300008D165491C31096821F40031624A1C322F
:100C4000116024E0062808D15F491C31096821F4AD
:100C500080215D4A1C32116019E00F2808D14FF045
:100C6000E021096921F002014FF0E02211610EE05C
:100C700010280CD3A0F1100101F01F0201219140B6
:100C8000A0F110025209574B53F82220116070470F
:100C900010B501460020042905D14B4A1C321268C8
:100CA00002F4803028E0052905D1474A1C32126839
:100CB00002F4003020E0062905D1434A1C321268B4
:100CC00002F4802018E00F2905D14FF0E0221269CC
:100CD00002F0020010E010290ED3A1F11002520917
:100CE0003F4B53F822201268A1F1100303F01F04B8
:100CF0000123A34002EA030010BD022808D13249B3
:100D0000091F096841F000412F4A121F116024E0B9
:100D10000E2808D12C49091F096841F080512A4A40
:100D2000121F116019E00F2808D12749091F09680F
:100D300041F08061244A121F11600EE010280CD38C
:100D4000A0F1100101F01F0201219140A0F1100259
:100D50005209254B53F82220116070470E2808D104
:100D60001949091F096841F00061174A121F1160F3
:100D700019E00F2808D11449091F096841F00071D2
:100D8000114A121F11600EE010280CD3A0F11001BF
:100D900001F01F0201219140A0F110025209134BF2
:100DA00053F822201160704710B504462046FFF723
:100DB00082FA10BD10B5FFF781FA10BDA0F1100145
:100DC0000B4A11607047000008ED00E000040020AD
:100DD000C50A0000D82700000000FA05F827000027
:100DE00094280000A8280000BC280000D02800009B
:100DF00000EF00E0024600210AE0F74850F8310019
:100E0000904204D3F44800EBC10040687047491C8D
:100E10000729F2D30020F9E7F0B50146DFF8BCC39B
:100E2000DCF860C1CCF38923DFF8B0C3DCF860C123
:100E3000CCF30905DFF8A4C3DCF864C1CCF3042CBF
:100E40000CF10106DFF894C3DCF864C10CF01F0C50
:100E50000CF10107B1FBF7F15A09A3EB421401FBB6
:100E600005F001FB02FC00EB5C1001FB04FC00EB55
:100E70009C20B0FBF6F0F0BDD8483C380068401C20
:100E800000027047D5480068D5490840D5498842D6
:100E900006D1D24880680004400900F50060704720
:100EA000CE484038006880B2401CC002F7E7CB480B
:100EB0000068CB490840CC49884209D1C74840382E
:100EC0000068C0F302400A30012101FA00F07047C7
:100ED0004FF48060FBE70146C1F30720C34A10448A
:100EE00000F0704040F00070C1F30722BF4B1A447D
:100EF000C2F3130240EA4210CAB240EA820000681C
:100F000008B1012070470020FCE70146C1F307202B
:100F1000B74A104400F0704040F00070C1F307225F
:100F2000B34B1A44C2F3130240EA4210CAB240EA79
:100F30008200006808B1012070470020FCE710B56E
:100F40000121C0F30722AB4B1A4402F0704242F079
:100F50000072C0F30723A74C2344C3F3130342EAF0
:100F60004312C3B242EA8302116010BD10B50021E2
:100F7000C0F307229F4B1A4402F0704242F0007205
:100F8000C0F307239B4C2344C3F3130342EA4312E9
:100F9000C3B242EA8302116010BD18B50121C0F34B
:100FA0000722954B1A4402F0704242F00072C0F3DF
:100FB0000723914C2344C3F3130342EA4312C3B201
:100FC00042EA830211600021009102E00099491C6D
:100FD000009100991029F9D30021C0F30722864B14
:100FE0001A4402F0704242F00072C0F30723824CB0
:100FF0002344C3F3130342EA4312C3B242EA830217
:10100000116018BD10B50121C0F307227B4B1A44B3
:1010100002F0704242F00072C0F30723774C234481
:10102000C3F3130342EA4312C3B242EA83021160DC
:1010300010BD10B50021C0F30722704B1A4402F016
:10104000704242F00072C0F307236C4C2344C3F398
:10105000130342EA4312C3B242EA8302116010BD95
:1010600010B50121C0F30722654B1A4402F070420B
:1010700042F00072C0F30723614C2344C3F313030F
:1010800042EA4312C3B242EA8302116010BD10B5B6
:101090000021C0F307225A4B1A4402F0704242F07A
:1010A0000072C0F30723564C2344C3F3130342EAF0
:1010B0004312C3B242EA8302116010BD10B5012190
:1010C000C0F307224F4B1A4402F0704242F0007204
:1010D000C0F307234B4C2344C3F3130342EA4312E8
:1010E000C3B242EA8302116010BD10B50021C0F303
:1010F0000722444B1A4402F0704242F00072C0F3DF
:101100000723404C2344C3F3130342EA4312C3B200
:1011100042EA8302116010BD30490968304A11402B
:10112000304A91420ED130B12C49096E41F0006134
:101130002A4A116618E02949096E21F00061274A00
:10114000116611E040B12549B031096841F0005104
:10115000224AC2F8B01007E02049B031096821F0F6
:1011600000511E4AC2F8B010704710B5044621461F
:101170002C20FFF7B9FC2C20FFF712FD10BD10B595
:101180002C20FFF749FD2C20FFF7C8FC10BD1349A8
:10119000496D0143114A516570471049496D8143BA
:1011A0000E4A516570470D4988657047014611B177
:1011B0000A48806D70470948006DFBE712490860D6
:1011C00070471148006870470F4908310860704740
:1011D0000D48083000687047702A000000E00F409A
:1011E0000000FF700000051000000A1000E30F402F
:1011F00000EA0F4000E90F4000E50F4000E60F4015
:1012000000E70F4000E80F40B4E10F40FE490860DE
:101210007047FD49091D08607047FC48FC4908609B
:1012200000BFFEE710B5FFF744F810BD10B5F84851
:10123000001D006840F00400F549091D0860FFF733
:1012400038F8F348001D006820F00400F049091D3B
:10125000086010BDEF48C06D7047EE49C96D81430D
:10126000EC4AD1657047EB49C86770470146EA48C8
:10127000084050B101F00040E34A383A1060E648B7
:1012800081380840E34AC2F85001DF48383801602D
:1012900001F4007088B100BFDB483438006800F406
:1012A00040700028F8D0D8483438006800F4407006
:1012B000B0F5807F01D0002070470120FCE7D249C3
:1012C000503108607047D0485030006870472DE9B1
:1012D000FE4F05468A46CF480068D0490840D049AD
:1012E000884202D10020BDE8FE8FC5F3841605F0C8
:1012F0003800102805D1DFF82C93002700BF1526F1
:1013000033E005F03800302804D147F230594FF46B
:1013100000172AE005F03800382804D14FF40049BE
:101320004FF4800721E005F03800D8B91A2E01DC0F
:10133000092E01DA0020D6E7BB4850F826904FF47A
:10134000401747F04077B348C06F20F01C00019071
:10135000072E03DB019840F010000190AD49019881
:10136000C86702E04FF00009002705F4605000282C
:101370007ED105F0380028B105F03800102801D0E2
:101380000020B0E7C5F3026BA848FFF733FDA14981
:10139000C03108609F48D0F8B000A54900EA0104B8
:1013A00044F000449B48B0300460093E0BEBCB0096
:1013B000A04901EB001000EBC60040689549D1F848
:1013C000641188420DD10BEBCB009A4901EB001060
:1013D00050F8360040F400008B49283909688842EB
:1013E00002D00120009001E000200090009808B396
:1013F0008848B030006838438649C1F8B0000BEB2C
:10140000CB008C4901EB001000EBC60040687E4920
:10141000243908600BEBCB00864901EB001050F833
:10142000360079492839096801F4000108437649F2
:1014300028390860804850F82B005044401EB0FB0B
:10144000FAF84846FFF7E8FCB0FBF8FA5046FFF719
:10145000D1FC7049C03108606E48D0F8600100F4DA
:10146000000068B10098012812D16A48B03000E04D
:1014700034E0006840F080406649C1F8B00007E001
:1014800061482838006840F400006249C1F86001F2
:101490004FF40040029009E05B482038006800F0FB
:1014A000010000B105E00298401E02900298002859
:1014B000F2DC00BF029870B15648B0300468A8F161
:1014C0000100384340F08050044344F00044514848
:1014D000C0F8B0403CE04FF0000A39E05148FFF757
:1014E00089FC4C49C03108604A48D0F8600120F4BA
:1014F00000004849C1F860010846D0F8B0404F48A4
:10150000044044F000444348B0300460BAF1000F96
:1015100002D14FF000080AE0B9FBFAF8B8F1000F69
:1015200001D0A8F1010808F10100B9FBF0FA50461A
:10153000FFF760FC3749C03108603648D0F8B0404A
:1015400047EA8820044344F000443248B030046045
:101550005046C8E62DE9F04106462E48056E046F58
:1015600045F4006525F4800544F4006405660467CD
:1015700005F0010010B306F00100F8B966F00100B3
:1015800005402448056604F0004038B104F07000BE
:1015900030280AD004F07000702806D004F0004013
:1015A00040B905F03000302804D14FF48050FEF7E8
:1015B00089FE03E04FF40020FEF784FE25F4FE656B
:1015C00006F4FE6005431E4804401D49A13106EAA9
:1015D0000100044306F0080044EAC0040D48056613
:1015E00004671020FEF76EFE25F4005506F4005047
:1015F000054324F4005406F40050044340200549F8
:10160000886504F000401DE088E10F400400FA0501
:101610000CED00E000E00F40000100800000FF70D2
:10162000000005100024F400E428000040787D014B
:1016300000FC0FE050290000A82A0000FF0300EF83
:101640008FFFFF7F18B108460467056602E0B548C2
:1016500005660467B4480540C14306EA0100054336
:1016600024F0FC5406F0FC50044306F0804040B1E6
:1016700045F4800524F48004AC4906EA01000443E3
:1016800001E024F0804406F4006080B94FF4004784
:1016900006E0A448006D00F0400000B102E07F1EAB
:1016A000002FF6D100BF25F4006524F400649D48A6
:1016B000056604671020FEF705FEBDE8F08170B5F1
:1016C0009848036E016F01F0004010B101F0700006
:1016D00001E003F03000202811D003DC38B11028DD
:1016E00015D10AE030280CD0702810D10CE09048B9
:1016F000C3F3841650F826200BE08E4A09E08E4A88
:1017000007E047F2305204E04FF4004201E00020CD
:1017100070BD00BF01F0004010B101F4006028B1BD
:1017200001F00040E0B903F40060C8B983480568DF
:101730007C48D0F8644104F01F00401CC4F3042628
:10174000761C10FB06F04000B2FBF0F2C5F3090076
:101750005043C5F38926564300EB962243F4800399
:1017600003F4800018B301F00040D8B101F08040CC
:1017700090B101F0004010B101F4006028B101F017
:10178000004048B903F4006030B95600C1F38650F8
:10179000401CB6FBF0F20AE0C1F3C550401CB2FB9E
:1017A000F0F204E0C3F3C350401CB2FBF0F2104669
:1017B000AEE762491C39086070472DE9F0410746E1
:1017C0000D46584800685E4908405E49884208D185
:1017D00025F0FC51781E41EAC05058491C39086078
:1017E0002FE07C1E05F0700030B1102813D0302897
:1017F00006D070280ED108E044F44014524E0CE09C
:1018000044F4001447F2305607E044F480044FF4E7
:10181000004602E000BF474E00BF00BF05F00200D7
:1018200008B144F0004405F0804008B144F0804421
:1018300042481C3804603046FFF7DCFA3949C1F8E9
:10184000C800BDE8F0813749096E21F4F011014369
:10185000344A116670473348006E00F4801008B9AE
:10186000002070472F48006E00F4F010F9E733496C
:101870006039096821F4706101432A4AC2F80011F5
:101880002E495039096821F470610143C2F81011E2
:1018900070472A486038006800F47060704721493A
:1018A000C96E00F00F0301229A4011431D4AD16610
:1018B00070471C49C96E00F00F0301229A40914302
:1018C000184AD16670471748006F20F480401549C8
:1018D000086770471348006F40F48040114908675B
:1018E00070471049886370470E48006E70470D4975
:1018F000096E01430B4A116670470A48406E7047F3
:101900000849496E8143074A516670474A1ED2B260
:1019100002430A4B183B1A6070470849283908608F
:101920007047000000E00F40FEFF3FF8000040401D
:10193000E42800000024F40000093D0060E10F40AD
:101940000000FF700000051040787D014FF0E0209E
:10195000006940F005004FF0E021086170474FF04A
:10196000E020006920F001004FF0E021086170479D
:1019700010B5044621460F20FFF7B6F84FF0E020DF
:10198000006940F002004FF0E021086110BD10B581
:101990004FF0E020006920F002004FF0E0210861E4
:1019A0000F20FFF7BBF810BD4FF0E020006940F0BA
:1019B00002004FF0E021086170474FF0E02000691D
:1019C00020F002004FF0E02108617047411E4FF007
:1019D000E022516170474FF0E0204069401C7047A1
:1019E0004FF0E0208069704730B50246C54B0824AF
:1019F000C5480068C54D2840C54DA84201D1C54B1A
:101A000000BF002108E053F83100904203D103EBFE
:101A1000C100406830BD491CA142F4D30020F9E761
:101A2000C26A22F086020A43C26270470146C86A4F
:101A300000F08600704741EA02034363704710B527
:101A4000436B03F007040C6003F03804146010BD0E
:101A5000C16A41F01001C162016B40F201321143D1
:101A60000163704700BF816901F008010029FAD1C4
:101A7000C16A21F01001C162016B40F20132914351
:101A800001637047F0B504460E4615461F462046D2
:101A9000FFF7E8FFB6EB051F05D2206B40F02000F2
:101AA00020636D0803E0206B20F020002063F0002D
:101AB000B0FBF5F0401C43089809606203F03F005A
:101AC000A062E7620020A0612046FFF7C1FFF0BDE1
:101AD000F0B5446A856A8E00402707FB0457B6FBC1
:101AE000F7F61660066B06F0200616B1166876004B
:101AF0001660C66A06F0EE061E60F0BDC16A41F0CF
:101B00001001C1627047C16A21F01001C1627047C3
:101B100021B1026B42F00602026303E0026B42F065
:101B2000020202637047016B21F0060101637047F6
:101B3000C16A21F0E60141F06E01C162026B42F020
:101B4000080202637047016B21F0080101637047CE
:101B5000026B01F440631A4302637047026B01F4A5
:101B600040639A43026370470146086B00F440608B
:101B700070470146886940F2071210407047026BB7
:101B800022F440420A43026370470146086B00F4A6
:101B900040407047026B22F010020A430263704714
:101BA0000146086B00F01000704701468869012269
:101BB00022EA1010704701468869012222EA50107B
:101BC00070470146886900F0100008B9086870473E
:101BD0004FF0FF30FBE7014600BF886900F01000BE
:101BE0000028FAD1086870470246906900F020008A
:101BF00010B91160012070470020FCE700BF826926
:101C000002F02002002AFAD10160704719B1C26ABD
:101C100042F0010202E0C26A22F00102C262704791
:101C200001468869C0F3C000704770B504460D4690
:101C30002046FFF7D9FE064629463046FEF754FFF8
:101C40003046FEF7ADFF70BD70B504462046FFF785
:101C5000CBFE05462846FEF7DFFF2846FEF75EFF6F
:101C600070BD826B0A4382637047826B8A438263D2
:101C70007047024609B1106C7047D06BFCE74164B5
:101C80007047826C0A4382647047826C8A43826424
:101C900070470146486800F00F007047002141601E
:101CA0007047C0F8C81F70470146D1F8C80F704789
:101CB000D0F8A41041F40041C0F8A4107047D0F847
:101CC000A41021F40041C0F8A4107047C0F8A4107B
:101CD000C0F8A82070470A4600BF836903F0880354
:101CE000802BFAD1C16A21F0040343F08203C3625E
:101CF000026000BF836903F08803802BFAD1C162C0
:101D000070470000B02A000000E00F400000FF70A4
:101D100000000A10F02A000010B562A000F0CAFB13
:101D200070A177A000F0C6FB7AA17CA000F0C2FBF6
:101D30007FA182A000F0BEFB85A000F0BBFB8CA0C1
:101D400000F0B8FB8CA000F0B5FB91A000F0B2FB56
:101D500097A000F0AFFB53A000F0ACFB10BD10B596
:101D60004FF08070406C81699C4888474FF08070CC
:101D7000406C81699A4888474FF08070006A816E94
:101D8000012088474FF08070006A816E40F2014068
:101D900088474FF08070006A0321426D4FF0402069
:101DA0009047904A4FF4E131002000F023F90521DB
:101DB0008D48FFF776FF10BD70B504460D46E1B2C1
:101DC0008948FFF71BFF204670BD70B50546864861
:101DD000FFF701FF0446204670BD4FF08071896F08
:101DE000086880474FF08071896F086980474FF01D
:101DF0008070406CC16D7D4888474FF08070406CAA
:101E000081697648401D88474FF08070006A202124
:101E1000C26B774890474FF08070006A4021C26BD8
:101E2000734890474FF08070006A1021C26B704871
:101E3000904700F0C1FAFFF792FFFFF76DFF2FE028
:101E4000002220216A48FEF73FFC642000F0EAFAF5
:101E5000202211466648FEF737FC642000F0E2FAC3
:101E6000002240216248FEF72FFC642000F0DAFADD
:101E7000402211465E48FEF727FC642000F0D2FAAB
:101E8000002210215A48FEF71FFC642000F0CAFA15
:101E9000102211465648FEF717FC642000F0C2FAE3
:101EA000CEE700002A2A2A2A2A2A2A2A2A2A2A2A85
:101EB0002A2A2A2A2A2A2A2A2A2A2A2A2A2A2A2A82
:101EC0002A2A2A2A2A2A2A2A2A2A2A2A2A2A2A2A72
:101ED0002A2A2A2A2A2A2A2A2A2A2A2A2A2A2A2A62
:101EE0002A0A0D00BBF9D3DAB5CEB4F0B6A8CAB150
:101EF000C6F7B5C4BEABD7BCD1D3CAB10000000091
:101F00002A20C0FDB3CCC3FBB3C62020203A202535
:101F1000730D0A0056312E30000000002A20C0FD4B
:101F2000B3CCB0E6B1BE2020203A2025730D0A00C4
:101F30003230323231313235000000002A20B7A26F
:101F4000B2BCC8D5C6DA2020203A2025730D0A007D
:101F50002A20B1EAD7BCBFE2B0E6B1BE203A205495
:101F60004D3443313233474836505A54370D0A0006
:101F70002A200D0A000000002A2051512020202094
:101F80003A2033313338333732313635200D0A00B9
:101F90002A20456D61696C203A203331333833375C
:101FA000323136354071712E636F6D200D0A00009D
:101FB0002A20436F70797269676874207777772E6B
:101FC0006E616D656C6573732E7465636820CEDE1B
:101FD000C3FBB4B4D0C20D0A00000000000800F03A
:101FE000001800F00024F40000C00040400500C1CB
:101FF000005002402DE9F04104460D461646E14AE4
:1020000052F824004FF08072526C1169884708B969
:10201000BDE8F081DC4850F82400DC490860D94A6A
:1020200052F824004FF08072526C916988474FF04B
:102030008070406960232A4631464769D34800686A
:10204000B8474FF080704069C169D0480068884740
:1020500000BFDDE770B505460E46002413E0285D9D
:102060000A2807D14FF0807040690D210268C748E7
:1020700000689047295D4FF0807040690268C3484E
:1020800000689047641CB442E9D3204670BD2DE936
:10209000F04106460F4600257F1E32E04FF080706B
:1020A0004069816BB9480068884744B2082C06D162
:1020B00025B10321B6A0FFF7CDFF6D1E21E00A2C4C
:1020C00006D1B448007818B10020B249087018E071
:1020D0000D2C03D00A2C01D01B2C05D10D2C02D1C4
:1020E0000120AC4908700DE0BD4209D274556D1C49
:1020F000E1B24FF0807040690268A44800689047E0
:1021000000BFCBE700BF002070550221A2A0FFF75F
:10211000A1FF2846BDE8F08110B54FF080704069FE
:10212000816B9A4800688847C0B210BD2DE9F34F13
:1021300085B0064612E1002400E0641C305D2528CD
:1021400002D0305D0028F8D121463046FFF782FFEB
:10215000264430782528EDD1761C00254FF0200B41
:1021600000BF16F8011B382932D014DC33292AD0DD
:1021700008DC25296FD0302922D0312921D03229FD
:102180006AD11FE034291FD035291ED036291DD031
:102190003729F5D11BE0692935D008DC392918D059
:1021A000582972D0632922D06429E9D12AE0702904
:1021B0006CD073293CD0752958D07829E0D163E0E0
:1021C00000BF00BF00BF00BF00BF00BF00BF00BF17
:1021D00000BF16F8010C302801D105B9834605EB84
:1021E0008500450016F8010C30380544B9E706981B
:1021F000006804900698001D0690012104A8FFF7CE
:1022000029FFAAE000BF0698006804900698001D08
:1022100006904FF000080498002805DA0498404220
:1022200004904FF0010901E04FF000090A2739E05E
:10223000069850F804AB0690002400E0641C1AF8DD
:1022400004000028FAD121465046FFF703FFA542BB
:102250000BD92D1B05E076E07AE001214FA0FFF7B6
:10226000F9FE281EA5F10105F7D176E00698006871
:1022700004900698001D06904FF000080A274FF0C2
:1022800000090FE001E001E000BF00BF0698006810
:1022900004900698001D06904FF0000810274FF09C
:1022A000000900BF012401E07C436D1E04FB07F020
:1022B0000499884205D804FB07F0B0FBF7F0A04270
:1022C000F2D0B9F1000F00D06D1EB9F1000F0AD0A5
:1022D000BBF1300F07D12D22404608F101080DF85F
:1022E00000204FF00009012D0BD9102D09D26D1ED1
:1022F00005E0404608F101080DF800B06D1E002D04
:10230000F7D1B9F1000F05D02D22404608F10108A0
:102310000DF8002010E00498B0FBF4F0B0FBF7F1EA
:1023200007FB11001E4909680A5C404608F10108D4
:102330000DF80020B4FBF7F4002CECD141466846C0
:10234000FFF788FE09E0701E0121FFF783FE04E01D
:10235000052114A0FFF77EFE00BF00BF30780028E3
:102360007FF4E9AE07B0BDE8F08F0FB408B503A85D
:10237000009000990298FFF7D9FE0020009001B06C
:102380005DF814FB402B0000342B000000000020FF
:1023900008200800040000200D0A000020000000B2
:1023A000302B00004552524F520000002648006872
:1023B000401C25490860704710B5FFF780F9234994
:1023C000B0FBF1F42046FFF701FB2148FFF7D0FAFC
:1023D000FFF7EAFAFFF7BAFA10BD1B48006870472A
:1023E00000B50146FFF7F9FF024600BFFFF7F5FF12
:1023F000801A8842FAD300BD00B503464FF47A71C3
:1024000003FB01F0FFF7ECFF00BD0F4800684FF43D
:102410007A71B0FBF1F0704710B504462046FFF723
:10242000EBFF10BD10B504462046FFF7F5FF10BDC9
:1024300000B503461846FFF7D3FF00BD00B50346BD
:102440001846FFF7CDFF00BD0800002040420F00F6
:10245000AD230000064C074D06E0E06840F00103A4
:1024600094E8070098471034AC42F6D3FDF710FF0C
:10247000602B0000802B000030B58C1810F8012B69
:1024800012F00F0301D110F8013B120906D110F828
:10249000012B03E010F8015B01F8015B5B1EF9D131
:1024A00001E001F8013B521EFBD1A142E6D300201E
:1024B00030BD00000FB4054B10B503A9044A0298C3
:1024C00000F017F810BC5DF814FB0000B91D000007
:1024D0000C00002002E008C8121F08C1002AFAD12F
:1024E00070477047002001E001C1121F002AFBD194
:1024F00070472DE9F84F99469246884605460027D1
:1025000006E025280AD051464A4690476D1C7F1C9C
:1025100028780028F5D13846BDE8F88F002315F853
:10252000011F18462E2915D115F8011F04232A2949
:102530000DD06FF02F022978A1F13004092C09D8B1
:1025400000EB800002EB400008446D1CF3E758F8F4
:10255000040B6D1C2A78002ADDD0632A07D0732A69
:102560000FD0104651464A4690477F1C2AE018F883
:10257000042B8DF8002000218DF801106E460121FA
:1025800003E058F8046B4FF0FF315A074FF0000496
:1025900001D409E0641C84420BDA8C42FADB325D20
:1025A000002AF7D105E0641C8C42FCDB305D00287A
:1025B000F9D1274404E016F8010B51464A469047EA
:1025C000641EF8D26D1CA3E700400040100000001C
:1025D0000080054010000000005000401100000085
:1025E0000090054011000000006000401200000053
:1025F00000A0054012000000007000401300000021
:1026000000B005401300000000400240140000002C
:1026100000C0054014000000005002402E000000E1
:1026200000D005402E000000006002402F00000096
:1026300000E005402F000000007002403000000064
:1026400000F005403000000000D0034046000000CC
:102650000000064046000000001006404700000051
:102660000020064048000000003006407F000000C7
:10267000004006408000000000500640840000003A
:10268000006006408C000000004000401000000088
:1026900000800540100000000050004011000000C4
:1026A0000090054011000000006000401200000092
:1026B00000A0054012000000007000401300000060
:1026C00000B005401300000000400240140000006C
:1026D00000C0054014000000005002402E00000021
:1026E00000D005402E000000006002402F000000D6
:1026F00000E005402F0000000070024030000000A4
:1027000000F005403000000000D00340430000000E
:102710000000064043000000001006404400000096
:102720000020064045000000003006405800000030
:102730000040064059000000005006405C000000C8
:10274000006006406400000000400040008005403A
:1027500000500040009005400060004000A005408F
:102760000070004000B005400040024000C005403D
:102770000050024000D005400060024000E00540EB
:102780000070024000F0054000D003400000064009
:1027900000100640001006400020064000200640C1
:1027A0000030064000300640004006400040064031
:1027B00000500640005006400060064000600640A1
:1027C0000070064000700640008006400080064011
:1027D0000090064000900640000700000006000040
:1027E00000050000000400000003000000020000DB
:1027F00000010000000000000000000018ED00E0F3
:102800001CED00E020ED00E000E400E004E400E066
:1028100008E400E00CE400E010E400E014E400E070
:1028200018E400E01CE400E020E400E024E400E020
:1028300028E400E02CE400E030E400E034E400E0D0
:1028400038E400E03CE400E040E400E044E400E080
:1028500048E400E04CE400E050E400E054E400E030
:1028600058E400E05CE400E060E400E064E400E0E0
:1028700068E400E06CE400E070E400E074E400E090
:1028800078E400E07CE400E080E400E084E400E040
:1028900088E400E000E100E004E100E008E100E09D
:1028A0000CE100E010E100E080E100E084E100E004
:1028B00088E100E08CE100E090E100E000E200E06F
:1028C00004E200E008E200E00CE200E010E200E0D8
:1028D00080E200E084E200E088E200E08CE200E0D8
:1028E00090E200E040420F0000201C0080841E00A7
:1028F00000802500999E36000040380000093D0008
:1029000000803E0000004B00404B4C0000204E0079
:10291000808D5B0000C05D000080700000127A00B6
:1029200000007D0080969800001BB7000080BB006F
:10293000C0E8CE00647ADA000024F4000000FA0057
:1029400080A81201002D310100366E0140787D0112
:1029500040000000000000003E00080000000000F1
:10296000A00000000200000034540100000000003C
:102970002B7006000000000028000000000000008E
:1029800027000100000000002000000000000000FF
:1029900050000000020000001AAC0000000000001F
:1029A00017940900000000001698050000000000C0
:1029B0001400000000000000138008000000000068
:1029C000A00000000800000010000000000000004F
:1029D0002800000002000000400000000400000089
:1029E00060000000000000005D000C00000000001E
:1029F00050000000000000004E0002000000000037
:102A000041AC0100000000003C000000000000009C
:102A10003A800900000000003000000000000000C3
:102A20002800000000000000270001000000000056
:102A30002360060000000000216008000000000084
:102A40001E000000000000001DC004000000000087
:102A5000500000000200000018000000000000000C
:102A600014000000000000006000000004000000EE
:102A70000024F4003000300080C3C90171007100EF
:102A800080F0FA02B200B20000879303D300D300B3
:102A900000B4C4041401140100E1F5055501550109
:102AA000000E27079601960100D0121300389C1CD7
:102AB00000C000401500000000D0004016000000DB
:102AC00000E000403100000000F000404B0000003A
:102AD000000001404C000000001001404D000000CB
:102AE000002001404E000000003001404F00000077
:102AF00000C000401500000000D00040160000009B
:102B000000E000403100000000F0004048000000FC
:102B10000000014049000000001001404A00000090
:102B2000002001404B000000003001404C0000003C
:102B30004C2B000000C0004000D0004000E00040EE
:102B4000001800F0011800F0021800F030313233A4
:102B500034353637383961626364656600000000D9
:102B6000802B0000000000206C060000782400008C
:102B7000902B00006C06002004020000E4240000FA
:102B800001FF01FF01FF01FF01FF01FF01790000CB
:04000005000002896C
:00000001FF
